:020000040800F2
:10000000F00E00209D010008A5010008AD270008A2
:10001000A9010008AB010008AD01000800000000C4
:10002000000000000000000000000000AF01000818
:10003000B101000800000000B3010008E54A000813
:10004000B7010008B7010008B7010008B7010008B0
:10005000B7010008B7010008B7010008B7010008A0
:10006000B7010008B701000859070008B7010008E8
:10007000B7010008B7010008B7010008B701000880
:10008000B7010008B7010008DD020008B701000849
:10009000B7010008B7010008B7010008B701000860
:1000A000C14B0008E94B0008B7010008B701000880
:1000B000B7010008014C0008B7010008B7010008AB
:1000C000B7010008B7010008B7010008B701000830
:1000D000B7010008DD5D0008B7010008495E0008AF
:1000E000B7010008B7010008B7010008B701000810
:1000F000B7010008B7010008B7010008B701000800
:10010000B7010008B7010008B7010008B7010008EF
:10011000B701000829520008B7010008B70100081C
:10012000B7010008B7010008B7010008B7010008CF
:10013000B7010008B7010008B7010008B7010008BF
:10014000B7010008B7010008B7010008B7010008AF
:10015000B7010008B7010008B7010008B70100089F
:10016000B7010008B7010008B7010008B70100088F
:10017000B7010008B7010008B7010008000000003F
:10018000B7010008B7010008DFF80CD000F068F8EC
:10019000004800473D5F0008F00E002006488047F9
:1001A00006480047FEE7FEE7FEE7FEE7FEE7FEE75C
:1001B000FEE7FEE7FEE7FEE7A54B00088901000821
:1001C0002DE9F05F0546002092469B46884606468C
:1001D000814640241BE0284641464746224600F01F
:1001E0002FF853465A46C01A914110D3114618466B
:1001F000224600F016F82D1A67EB01084F462246FA
:100200000120002100F00DF817EB00094E41201EDF
:10021000A4F10104DFDC484631462A464346BDE8E6
:10022000F09F202A04DB203A00FA02F100207047F8
:100230009140C2F1200320FA03F319439040704724
:10024000202A04DB203A21FA02F00021704721FA2B
:1002500002F3D040C2F12002914008431946704792
:10026000064C074D06E0E06840F0010394E8070003
:1002700098471034AC42F6D3FFF78AFF1C6A000897
:100280003C6A000870B58C1810F8015B15F0070384
:1002900001D110F8013B2A1106D110F8012B03E01F
:1002A00010F8016B01F8016B5B1EF9D12B0705D427
:1002B0000023521E0DD401F8013BFAE710F8013B70
:1002C000CB1A921C03E013F8015B01F8015B521E8C
:1002D000F9D5A142D8D3002070BD00000D4810B55B
:1002E000016811F0040F09D0016821F00C010160D0
:1002F00004F088FDBDE8104005F05AB9D0F80012AE
:1003000021F00C01C0F8001204F07CFDBDE81040A3
:1003100005F04EB90020014010B4024608460FFA1D
:1003200081FC1CFB0CF40B1413FB03411488644385
:100330008C4224BF10BC704792F8B240C4EB1161EC
:10034000C9B202EB41018A8810BC0CFB02F14FEAF2
:10035000E17C01EB5C41C91361F30F0003FB02F187
:10036000CA1701EB5241C91361F31F4070470000E7
:100370002DE9F041054690F830101A4C002205F0A6
:100380008FF9E61306FA80F14FF4700797FAA7F297
:100390007001B2FA82F2D04004EB800082686FF301
:1003A0000F1211438160606840F00100606095F8B1
:1003B00031100022284605F073F906FA80F197FA09
:1003C000A7F2F001B2FA82F2D04004EB800082681A
:1003D0006FF30F1211438160606840F002006060AB
:1003E000BDE8F08100740040084490F83000704788
:1003F00000EB4100B0F9320070470000044801688A
:1004000041F001010160016841F4803101607047F1
:1004100000740040084480F83020704700EB410031
:100420004286704770B504468089012530B1401E70
:100430000004000CA08118BF002501D0284670BD23
:10044000B4F91400217E90FBF1F001B2A06800F035
:100450006DF90120A073F1E7C07B70478360C0E9AC
:10046000001200218173C1737047807B7047C17394
:10047000704710B5044600224068114605F009FD9A
:10048000B4F91410606805F042FD0021206804F002
:100490006EFA00221146206804F0EAF9E28AB4F903
:1004A0001210206804F0E4F9E08A218A48434FF4EE
:1004B0007A71B0FBF1F0401CA08110BD016A496A5D
:1004C000826E89B25143CA1701EB12410914C388E5
:1004D000C180427812FB01F212B28280C91A83688D
:1004E00009B219448160104670472DE9F041076A4E
:1004F000002490F875507B6A2246B0F870C02646FA
:10050000A0F870403F68BCF1010F07F0100884BFED
:100510004FF0010C80F879C0B0F86E70B0F872C07E
:10052000B8F1100F5ED09C4594BF4FF000084FF01B
:100530000108A3EB0C0C08FB07CC90F8787000EBDB
:100540008707C7F828C0002D08D900EB820C521C81
:10055000DCF828C0D2B264449542F6D8426A02FB65
:1005600004FCB0F86E2090F8754062439CFBF2F2F8
:100570000A80B0F80CC0A2EB0C0CA0F812C082816B
:1005800090F87820B0F86CC000EB8202926A02FB0F
:100590000CF290F801C002FB0CF2B0F86EC092FBB6
:1005A000FCF2D0F81CC00CFB02F2B0F81AC092FBAF
:1005B000FCF2C281A0F8723090F87820521C80F8CA
:1005C000782090F8782090F875309A4208BF80F82B
:1005D000786090F87920B2B180F87660C278002116
:1005E000027013E09C4534BF4FF001084FF0000843
:1005F000A3EB0C0C08FB17CC90F8787000EB870786
:10060000C7F828C09FE704F0CDF801460846BDE8CA
:10061000F081000090F875200021002A88BF002298
:1006200009D900BF00EB8103491C9A6290F875302C
:10063000C9B28B42F6D8012180F8761070470000CD
:10064000B0F87010491CA0F87010006A006810F033
:10065000100F044841890CBF491C491E41810020EC
:1006600070470000240600202DE9F001016A0022F5
:100670004A62B0F86E204FF0FF33B3FBF2F28266AD
:10068000B0F86C20DFF8A0C002EB82025200426298
:1006900090F8772001F1180516059CF800205319F1
:1006A0001F680CF10702F02492F8008004FA08F8A1
:1006B00027EA080792F80080360C06FA08F63E434F
:1006C0001E6090F877301E059CF802302B44D3F85A
:1006D00000C09578AC402CEA040C340CEAB204FA61
:1006E00002F24CEA02021A606FF001020A61CA6863
:1006F00042F00102CA600A6842F001020A6090F802
:1007000075200021002A8EBF0023BDE8F00170474C
:1007100000EB810C491CC9B2CCF828308A42F7D8CA
:10072000BDE8F00170470000F8690008026AC18066
:10073000437813FB01F383804FF6FF730029B8BFA2
:10074000494289B2B8BF591AB0F86E004843B0FBAD
:10075000F3F080B2506270470448016811F0100F46
:1007600008BF70471021016005F07AB9143C0140C0
:10077000002190B14378017800221944002B09D957
:1007800000EB020C521C9CF802C0D2B2614489B248
:100790009342F5D801EB1120C1B208467047002101
:1007A00041820175417580F8961080F8971080F8A5
:1007B000981080F8991080F89A1080F81B1180F832
:1007C0001C1180F81D117047DDF800C0002818BF0B
:1007D00080E80E107047000070B500EB400101EB9F
:1007E0000012324901EB420595F82410002947D048
:1007F0002F48006A416A2F4CB4F90A2002EB4203E9
:10080000C3EBC21201EB42116161406A0021B4F9ED
:100810000A2002EB4203C3EBC21200EB42106061FC
:100820002548B0F900300122012BB8BF0280B0F991
:1008300000300A2BC4BF0A23038094F801C01F4B69
:10084000BCF1010F24D0D4F814C0B3F900309C459A
:10085000D2BF6270B0F90000414208B22169084479
:10086000206120696169401A01B2A181144802F037
:1008700009FF2081E88328824FF47A70688270BD76
:10088000104951F8200003F0BDFFE883288270BDB5
:10089000B3F900200C4BB3F900301A4463699A4253
:1008A000CEBFB0F9001002206070D6E748090020E2
:1008B00094020020240600201E0600201C060020B2
:1008C000F0050020440600202006002010B5044654
:1008D00000EB440000EB04121248002100EB42023E
:1008E000114811605160D1601161D183C2F81610B6
:1008F000C2F81A10118450F8240002F0FAFE0B48D6
:10090000002150F8240002F0F4FE094850F82400B9
:1009100003F0A6FF074850F82400BDE8104003F09C
:1009200073B800004809002050060020540600203B
:1009300044060020640600207047000030B4B3F580
:10094000804F18BF6FF0704105D000BF40F82210F3
:1009500030BC0020704750F82230DFF828C08D8965
:1009600003EA0C03D1E900C44CEA041C8C688969D1
:10097000240244EA05444CEA040C4CEA0101194300
:10098000E4E700000000F0CF70B40B6850F82320BB
:10099000DFF84CC0D1E9035602EA0C0CD1E9014260
:1009A000144335432C434D692C438D692C43CD6949
:1009B0002C430D6A2C434D6A2C438D6A2C43CD6A1F
:1009C0002C43CD6B096B2C43214341EA0C01082ACF
:1009D00008BF41F0400140F8231070BC0020704770
:1009E0008000F0FF10B400EB82004268D1E9003CC7
:1009F00043EA0C13D1F808C08C894FEA0C2C4CEA5E
:100A0000044C43EA0C03B1F810C00A4C02F0404217
:100A100004EB0C5C43EA0C0391F814C0640104EB92
:100A20000C6C896943EA0C0319431143416010BC03
:100A3000002070470000F0FF10B490F83C20012A1D
:100A400002BF022010BC7047012280F83C200A68D7
:100A50000723D0F800C0092A18D9DCF80C400A3A5C
:100A600002EB420203FA02F224EA0202CCF80C2062
:100A70000B788A680A3B03EB430302FA03F302682C
:100A8000D2F80CC043EA0C03D36015E0DCF8104048
:100A900002EB420203FA02F224EA0202CCF810202E
:100AA0000B788A6803EB430302FA03F30268D2F877
:100AB00010C043EA0C0313610268936B23F44013E4
:100AC00093630268936BB1F810C05B4C04EB0C5C51
:100AD00043EA0C0393630A790B7CD21AD21C02EB13
:100AE00082021F2393400268D2F838C02CEA030325
:100AF00093630A790B7CD21A0B88D21C02EB820218
:100B00009BB293400268D2F838C043EA0C03936367
:100B10008A696FF47023DA420268936823F47023C1
:100B200093600268936808BF23F440130FD0D1F894
:100B300018C043EA0C0393600268936823F44013DF
:100B4000936002689368D1F81CC043EA0C03936079
:100B50004A7D002A0268536814BF43F4806323F47B
:100B6000806353600A7D002A0268536814BF43F40F
:100B7000805323F4805353604A68012A1BD0022A11
:100B800026D0032A026830D0136A6FF30B03136276
:100B90000268136AD1F80CC043EA0C031362284BB5
:100BA000D0F800C0254A9C4504BFD1F800C0BCF174
:100BB000120F2CD125E0026853696FF30B035361C8
:100BC00002685369D1F80CC043EA0C035361E6E7AD
:100BD000026893696FF30B03936102689369D1F81C
:100BE0000CC043EA0C039361D9E7D3696FF30B039D
:100BF000D3610268D369D1F80CC043EA0C03D36116
:100C0000CDE7D2F804C04CF4800CC2F804C0D0F890
:100C100000C09C4508D10968102918BF112903D1CB
:100C2000516841F4000151604FF0000180F83C1020
:100C300010BC0846704700000000F0FF0023014090
:100C40000020014030B482B04FF0000CCDF804C059
:100C500090F83C20012A01BF022002B030BC70474E
:100C6000012280F83C200A6807230468092A14D965
:100C7000E5680A3A02EB420203FA02F225EA0202AE
:100C8000E2600B788A680A3B03EB430302FA03F342
:100C90000268D4682343D36011E0256902EB420265
:100CA00003FA02F225EA020222610B788A6803EB5A
:100CB000430302FA03F302681469234313614A6889
:100CC0001F23072A16D20468656B521E02EB8202AC
:100CD00003FA02F225EA020262630B790A885B1EBC
:100CE00092B203EB830302FA03F30268546B2343CB
:100CF00053632DE004680D2A15D2256BD21F02EB39
:100D0000820203FA02F225EA020222630B790A88C0
:100D1000DB1F92B203EB830302FA03F30268146B46
:100D20002343136314E0E56A0D3A02EB820203FAEF
:100D300002F225EA0202E2620B790A880D3B92B2C6
:100D400003EB830302FA03F30268D46A2343D362FA
:100D5000254B0468234A9C4204BF0C68122C03D123
:100D6000546844F48004546004689C422FD10B689A
:100D7000102B18BF112B2AD1536843F40003536082
:100D80000968102923D11949194A0968B1FBF2F100
:100D900001EB810149000191009118D0B1F1004FA0
:100DA0001BD20029D8BF002105DD11F0010102D0BE
:100DB000019A521E0192009A491C521C914206DA75
:100DC000019B891C5B1E5B1E01939142F8DB80F83E
:100DD0003CC002B0002030BC70470199491E01910F
:100DE000FCD1F4E70023014000200140A4060020CC
:100DF00040420F0070B504004FF0000504BF012011
:100E000070BD206C002628B9204600F0ADF866645D
:100E100084F83C60206C10F0100F18BF012503D03F
:100E200084F83C60284670BD206C20F4885040F067
:100E3000020020644948416821F440314160416822
:100E40006268114341602068416821F4807141600B
:100E500020684168226941EA0221416020684168B6
:100E600021F04071416020684168A26811434160EF
:100E70002068816821F40061816020688168E268EF
:100E800011438160A06A6FF07061C8422068816878
:100E900021F0706181602068816808BF21F04051B5
:100EA0000BD0A26A114381602068816821F0405113
:100EB000816020688168E26A1143816020688168EE
:100EC00021F00201816020688168227E41EA4201AE
:100ED000816094F8200000282068416808BF21F450
:100EE00000610ED041F4006141602068416821F446
:100EF0006041416020684168194B626A03EB4232ED
:100F0000114341602068C16A21F47001C162206808
:100F1000C16AA28B134B03EB02521143C1622068DA
:100F2000816821F4007181602068816894F8302024
:100F300041EA422181602068816821F480618160FA
:100F400020688168626941EA822181606664206C60
:100F500020F0020040F00100206461E7002301401E
:100F600000E0FFFF0000F0FF70B586B0002500959F
:100F7000019502950395049503682E492E4A032492
:100F80002E482F4EA3F1804CBCF5903C2ED0DFF8BC
:100F9000B4C063451CBF06B070BD0B6843F400735A
:100FA0000B60096801F400710591116841F00101BD
:100FB0001160116801F001010591116841F0020111
:100FC0001160116801F0020105914821CDE900147A
:100FD000694600F0CDF80120CDE90004694602958C
:100FE0004FEA060000F0C4F806B070BD0B6843F489
:100FF00080730B60096801F480710591116841F0FC
:1010000001011160116801F001010591116841F0C1
:1010100002011160116801F0020105914921CDE939
:101020000014694600F0A4F8009469463046CDE902
:101030000145D7E744380240303802400000024002
:1010400000040240002101404379012B04BF02202B
:10105000704730B44FF0010C80F805C002230371D3
:1010600003681C6840F6FE759540AC43D1E9005119
:10107000294391402143196001680B68C02404FA98
:1010800002F223EA02020A6080F804C000214171E2
:1010900030BC08467047002804BF0120704770B577
:1010A00004460079002518B96571204600F008F85B
:1010B00002202071256101202071002070BD0000F8
:1010C00000B587B000210091019102910391049134
:1010D0000068A0F18041B1F5E8411CBF07B000BD38
:1010E0000D48016841F000510160006800F00050B7
:1010F00005900A48016841F00101016000686946F5
:1011000000F0010005903020009003200190044879
:1011100000F02EF807B000BD4038024030380240E1
:101120000000024090F83510022903D0802141656B
:1011300001207047052180F835100068016821F012
:10114000010101600020704770B5044600F03CF9D1
:101150000546B4F1FF3F02D004480078044400F093
:1011600033F9401BA042FAD370BD0000980600205E
:101170002DE9F84F00220127884D03264FF00F0874
:101180000B6807FA02FC03EA0C03634540F0FF809A
:101190004C68012C18BF022C03D0112C18BF122C44
:1011A0001AD1D0F808904FEA420406FA04FA29EA64
:1011B0000A09D1F80CA00AFA04F444EA090484608C
:1011C000446824EA0C0C0C79C4F3001404FA02F409
:1011D00044EA0C0CC0F804C0D0F80C904FEA420C62
:1011E000D1F808A006FA0CF429EA04090AFA0CFA64
:1011F0004AEA0909C0F80C90D1F80490B9F1020F3D
:1012000018BFB9F1120F15D14FEAD20900EB890AC4
:10121000DAF820B04FEA42794FEAD96908FA09FEB4
:101220002BEA0E0BD1F810E00EFA09F949EA0B0986
:10123000CAF82090D0F8009029EA040491F80490AC
:1012400009F0030909FA0CFC4CEA040CC0F800C0D0
:10125000D1F804C01CF0805F7DD0D5F800C04CF4FC
:10126000804CC5F800C0D5F800C00CF4804CCDF817
:1012700000C022F0030C0CF1804404F59834D4F83B
:1012800008984FEA827C4FEA1C7C08FA0CFA29EA9B
:101290000A09A0F1804ABAF5003A38D0A0F1804A94
:1012A000BAF5013A08BF4FF0010A30D0A0F1804AE8
:1012B000BAF5023A08BF4FF0020A28D0A0F1804ADE
:1012C000BAF5033A08BF4FF0030A20D0A0F1804AD4
:1012D000BAF5043A08BF4FF0040A18D0A0F1804ACA
:1012E000BAF5053A08BF4FF0050A10D0A0F1804AC0
:1012F000BAF5063A08BF4FF0060A08D0A0F1804AB6
:10130000BAF5073A0CBF4FF0070A4FF0080A0AFA7D
:101310000CFC4CEA090CC4F808C8214CD4F800C0F5
:10132000D1F804902CEA030C19F4803F18BF4CEA62
:10133000030CC4F800C01B4CD4F800C0D1F80490D2
:101340002CEA030C19F4003F18BF4CEA030CC4F854
:1013500000C0154C00E01AE0D4F800C0D1F80490A9
:101360002CEA030C19F4801F18BF4CEA030CC4F8D4
:1013700000C00E4CD4F800C0D1F804902CEA030C45
:1013800019F4001F18BF4CEA030CC4F800C0521C2B
:10139000102AFFF4F5AEBDE8F88F00004438024093
:1013A000003C0140043C0140083C01400C3C014031
:1013B000426931EA020208BF090481617047002ACC
:1013C00008BF0904816170470148806870470000C8
:1013D00098060020024881680278114481607047B5
:1013E000980600200B4810B5016841F400710160B7
:1013F000016841F480610160016841F4807101601D
:10140000032000F087F8042000F006F800F024F82C
:10141000002010BD003C024070B50D4D04464FF455
:101420007A712878B1FBF0F00A490968B1FBF0F055
:1014300000F074FC48B9102C07D200222146501E3F
:1014400000F036F800206C6070BD012070BD000017
:1014500098060020A40600200B4882B0016841F4E1
:1014600080410160006800F48040009007480168F6
:1014700041F080510160006800F08050009004202D
:1014800002B000F047B80000443802404038024043
:101490000028B8BF704700F01F01012202FA01F1D5
:1014A0004009800000F1E020C0F800117047000002
:1014B000174B10B41B68C3F30223C3F1070CBCF134
:1014C000040F88BF4FF0040C1C1D072C34BF0023F1
:1014D000DB1E012404FA0CFCACF1010C0CEA010146
:1014E000994004FA03F35B1E1A40114300284FEAA7
:1014F0000111A1BF00F1E02080F8001410BC70477A
:1015000000F00F0000F1E02080F8141D10BC7047BF
:101510000CED00E0074900F007000A684FF6FF03F2
:101520001A4042EA002040F0FD7040F08060086000
:10153000704700000CED00E0002804BF0120704758
:101540002DE9F0474D4E04460F46306801F0FF0884
:1015500000F00F00B84206D286F80080306800F034
:101560000F00B84261D12068454D10F0020F14D031
:1015700010F0040F03D0286840F4E0502860207871
:1015800010F0080F03D0286840F4604028602868F5
:10159000A16820F0F00008432860207810F0010FC7
:1015A00037D060683749012823D0022818BF0328A4
:1015B000096823D011F0020F37D0296821F0030108
:1015C00041EA00002860FFF7FFFE81462868616855
:1015D00000F00C00B0EB810F18BF41F2883A18D030
:1015E000FFF7F2FEA0EB090050450BD90320BDE840
:1015F000F087096811F4003FDFD116E011F0007F99
:10160000DBD112E02868616800F00C00B0EB810FBC
:10161000E6D1306800F00F00B84209D986F80080A2
:10162000306800F00F00B84202D00120BDE8F0871A
:10163000207810F0040F05D02868E16820F4E0500D
:1016400008432860207810F0080F06D02868216928
:1016500020F4604040EAC100286000F047F82968A3
:10166000094AC1F30311515CC840084908600848A1
:101670000068FFF7D1FE0020BDE8F087003C024083
:101680000838024000380240E0690008A406002043
:101690009C06002001490120C864704700004742B1
:1016A0000148006870470000A4060020044805496E
:1016B00000680968044AC1F38221515CC840704740
:1016C000A406002008380240F069000804480549D3
:1016D00000680968044AC1F34231515CC840704750
:1016E000A406002008380240F06900081848006885
:1016F00010F00C02174808BF70471749042A04BFAE
:1017000008467047082A18BF704710B5134C226866
:10171000236802F03F0213F4800F08D020680023F2
:10172000C0F38810A0FB0101FEF74AFD07E0216825
:101730000023C1F38811A1FB0001FEF741FD2168E0
:10174000C1F30141491C4900B0FBF1F010BD00009C
:10175000083802400024F40000127A0004380240E5
:10176000002804BF012070472DE9F84F0446007897
:10177000DFF8AC8310F0010FA8F1040558D008F190
:101780000400016801F00C01042909D0006800F090
:101790000C0008280DD1D8F8000010F4800F08D0F4
:1017A000286810F4003F43D06068002800F0B18141
:1017B0003EE06068B0F5803F19D0B0F5A02F2868F2
:1017C0000CBF40F4802020F48030286028680CBFD3
:1017D00040F4803020F4802028606068B8B1FFF7C2
:1017E000F3FD0646286810F4003F05D020E0286885
:1017F00040F480302860F0E7FFF7E6FD801B6428A6
:1018000000F22781286810F4003FF5D010E0FFF7C0
:10181000DBFD0646286810F4003F09D0FFF7D4FD31
:10182000801B642800F21581286810F4003FF5D170
:101830002078BC4F10F0020F47D0BB48016811F070
:101840000C0F16D0006800F00C00082804BFD8F870
:10185000000010F4800F0CD0E06820B34FF00100BE
:101860003860FFF7B1FD0646286810F0020F09D076
:1018700011E0286810F0020F1CBFE06801280AD0B0
:1018800000F047B9FFF7A0FD801B02287ED828682A
:1018900010F0020FF6D02868216920F0F80040EA25
:1018A000C100286011E000203860FFF78DFD06467A
:1018B000286810F0020F08D0FFF786FD801B022871
:1018C00064D8286810F0020FF6D1207810F0080FC5
:1018D0002AD09648964E616999B101210160FFF7BF
:1018E00073FD8146306810F0020F1DD1FFF76CFDCB
:1018F000A0EB0900022849D8306810F0020FF5D09B
:1019000012E000210160FFF75FFD8146306810F0B2
:10191000020F09D0FFF758FDA0EB0900022835D8C7
:10192000306810F0020FF5D1207810F0040F77D056
:1019300080484FF0000B006810F0805F0AD17D48AE
:10194000016841F08051016000684FF0010B00F028
:1019500080500090784E306810F4807F14D1306849
:1019600040F480703060FFF72FFD8146306810F43E
:10197000807F09D1FFF728FDA0EB0900022868D875
:10198000306810F4807FF5D06C4E00E061E0A06814
:1019900001281BD0052830680CBF40F0040020F05F
:1019A0000100306030680CBF40F0010020F00400FE
:1019B000C6F80000A06841F2883AB8B1FFF704FD0C
:1019C0008146306810F0020F05D021E0306840F009
:1019D00001003060EEE7FFF7F7FCA0EB090050458F
:1019E00037D8306810F0020FF5D011E0FFF7ECFCAB
:1019F0008146306810F0020F0AD000BFFFF7E4FC08
:101A0000A0EB0900504524D8306810F0020FF5D142
:101A1000BBF1000F04D04748016821F080510160FC
:101A2000A069E8B34049096801F00C01082950D0C9
:101A300002284FF0000038660ED0FFF7C5FC0446C0
:101A4000286810F0007F67D0FFF7BEFC001B02285B
:101A50003AD90320BDE8F88FFFF7B6FC06462868A0
:101A600010F0007F09D000BFFFF7AEFC801B0228FA
:101A7000EFD8286810F0007FF6D1D4E907010843B9
:101A8000A16A2F4A490802EB0141626A41EA8211C8
:101A9000084394F82C1040EA0160C8F8000000E008
:101AA0003AE001203866FFF78FFC0446286810F002
:101AB000007F31D1FFF788FC001B0228C9D82868B5
:101AC00010F0007FF6D027E0286810F0007FBBD12F
:101AD00022E0012808BFBDE8F88FD8F80000E269CD
:101AE00000F48001914214D1226A00F03F0191423A
:101AF0000FD147F6C071626A0140914209D1A26AD2
:101B000000F44031914204D1E16A00F070608842F3
:101B100002D00120BDE8F88F0020BDE8F88F00005A
:101B2000043802400000474208380240800E474215
:101B30007438024040380240007000407038024063
:101B40000000FFFF002804BF0120704770B500258A
:101B50000446856290F8510020B984F85050204620
:101B600000F030F8022084F851002068016821F06C
:101B700040010160D4E901010843D4E90312114393
:101B8000084361690843218B01F400710843E1694E
:101B90000843216A0843A16A084321680860A069D4
:101BA000042101EA1040616A084321684860206806
:101BB000C16921F40061C1616565012084F85100AB
:101BC000002070BD00B587B0002100910191029105
:101BD000039104910068A0F18041B1F560511CBFF0
:101BE00007B000BD0F48016841F480410160006802
:101BF00000F4804005900C48016841F48071016058
:101C00000068694600F4807005900E200090022064
:101C1000019003200390052004900448FFF7A8FAE0
:101C200007B000BD4038024030380240002002407A
:101C3000002804BF0120704770B5044690F84900A1
:101C400015460E4628B9002084F84800204600F0CA
:101C50001BF804F108012068FEF796FE3146A268E1
:101C60002068FEF7BFFED4E901022946236BFEF788
:101C700065FEA168206850F8212042F0010240F87A
:101C80002120002070BD0000F0B587B000241D4861
:101C900000940194029403940494016800291CBFE9
:101CA00007B0F0BD012101601748016841F0010152
:101CB00001600068022500F00100059041F201007A
:101CC000CDE9000503260C2769461048CDE90367D6
:101CD000FFF74EFA4CF23370CDE90005CDE902462C
:101CE000694604970A48FFF743FA4FF68070CDE93A
:101CF0000005CDE90246694604970648FFF738FA21
:101D000007B0F0BD900600203838024000180240AD
:101D1000000C02400010024070470000411EB1F16B
:101D2000807F24BF012070474FF0E0204161054AC9
:101D3000F02182F8141D002181610721016100203A
:101D4000704700000FE000E010B5FFF7E5FF10BDA1
:101D500090F83C20012A04BF02207047012280F83D
:101D60003C20CA688B6822F440721A434B6822F404
:101D700080621A430B6822F400621A430B6922F452
:101D800080521A434B6922F400521A43C96922F463
:101D90008042114302685164002180F83C100846DB
:101DA000704790F83C20012A04BF0220704730B4ED
:101DB000012380F83C30022280F83D2002685468FC
:101DC000D2F808C00D6824F070042C4354600268F7
:101DD000A2F18044B4F5803418BFB2F1804F1DD019
:101DE000A2F18044B4F580641CBFA2F18044B4F534
:101DF000006413D0A2F18044B4F540641CBFA2F18A
:101E00008044B4F5823409D0A2F18044B4F5A03402
:101E10001CBFA2F18044B4F5C05405D149682CF030
:101E2000800C41EA0C01916080F83D30002180F87F
:101E30003C1030BC08467047002804BF01207047A2
:101E400010B5044690F83D0028B9002084F83C0005
:101E5000204600F00DF8022084F83D00211D206886
:101E600002F0E0FE012084F83D00002010BD0000DB
:101E700000B587B000210091019102910391049176
:101E80000068A0F18041B1F580311CBF07B000BDF2
:101E90000F48016841F001010160006800F0010095
:101EA00005900C48016841F0020101600068694634
:101EB00000F0020005904FF4805000900220019045
:101EC0000120029004900448FFF752F907B000BDCA
:101ED000443802403038024000040240002804BF69
:101EE0000120704770B5044690F83D000D4628B9B2
:101EF000002084F83C00204600F048F8022084F8D6
:101F00003D002068816821F0070121F48041816053
:101F1000211D206802F086FE206883688269016ABC
:101F2000D5F800C022F00302AE694CEA030322F4A4
:101F3000407242EA0622D5F808C0EE694CEA020275
:101F400022F0FC0222F47C42D5F80CC042EA0622C0
:101F50004CEA0202D5F810C02E6A4FEA0C1C4CEA7B
:101F6000063C4CEA0202D5F804C06D6921F0AA01D2
:101F700041EA05114CEA0101836020688261206812
:101F80000162012084F83D00002070BD00B587B0DB
:101F90000021009101910291039104910068A0F148
:101FA0008041B1F580611CBF07B000BD0E480168DB
:101FB00041F002010160006800F0020005900B484A
:101FC000016841F0040101600068694600F0040006
:101FD0000590C02000900220019004900448FFF773
:101FE000C7F807B000BD000040380240303802405A
:101FF0000008024030B587B00021009101910291A4
:10200000039104910068A0F18041B1F580311CBFBB
:1020100007B030BD1548016841F001010160016859
:1020200001F001010591016841F0020101600068C1
:10203000022400F0020005904FF4E060CDE90004B6
:102040000125029469460A48CDE90345FFF790F857
:102050004FF46040CDE90004029469460548CDE99B
:102060000345FFF785F807B030BD00003038024067
:10207000000002400004024090F83C30012B04BFF5
:10208000022070472DE9F001012480F83C40022332
:1020900080F83D308A4BDFF82CC242B1042A49D087
:1020A000082A7DD00C2A00F0CE8000F0FFB802682C
:1020B000156A25F001051562156A56689769D1F809
:1020C000008027F0730748EA0707D1F8088025F059
:1020D000020548EA05059A4218BF624507D1D1F8C2
:1020E0000C8025F0080548EA050525F004059A420C
:1020F00018BF624509D1D1F814C026F440734CEAE8
:102100000303D1F818C04CEA0306566097614B6888
:10211000536315620268936943F008039361026890
:10212000936923F00403936102689369096943EAA0
:10213000010143E00268156A25F010051562156A71
:1021400056689769D1F8008027F4E64747EA0827E0
:10215000D1F8088025F0200545EA08159A4218BFF5
:10216000624507D1D1F80C8025F0800545EA0815B5
:1021700025F040059A4218BF624509D1D1F814C034
:1021800026F4406343EA8C03D1F818C043EA8C0676
:10219000566097614B68936315620268936900E02B
:1021A0000EE043F4006393610268936923F4806353
:1021B000936102689369096943EA0121916175E0BD
:1021C0000268156A25F480751562166A5568D76924
:1021D000D1F8008027F0730748EA0707D1F8088094
:1021E00026F4007646EA08269A4218BF624507D1CF
:1021F000D1F80C8026F4006646EA082626F48066AC
:102200009A4218BF624509D1D1F814C025F4405351
:1022100043EA0C13D1F818C043EA0C155560D76196
:102220004B68D36316620268D36943F00803D36135
:102230000268D36923F00403D3610268D369096992
:1022400043EA010131E00268156A25F48055156200
:10225000176A5568D669D1F8008026F4E64646EA42
:102260000826D1F8088027F4005747EA08379A4231
:1022700018BF624505D1D1F814C025F4804343EA64
:102280008C155560D6614B68136417620268D36978
:1022900043F40063D3610268D36923F48063D3619C
:1022A0000268D369096943EA0121D16180F83D40A0
:1022B0004FF0000180F83C10BDE8F001084670477F
:1022C0000000014000040140002804BF01207047C5
:1022D00010B5044690F83D0028B9002084F83C0071
:1022E000204600F00CF8022084F83D00211D2068F3
:1022F00002F098FC012084F83D00002010BD7047DA
:1023000070B5044690F83C00012804BF022070BD5F
:10231000012584F83C50022084F83D00204602F05C
:10232000E7FC01004FF0000005D084F83D5084F830
:102330003C00012070BD2168CA6822F04002CA60DA
:102340002168CA6822F48042CA6084F83D5084F84B
:102350003C00002070BD704770B5016804460868F5
:10236000CA684B6910F00F0F4FF0200541D003F001
:10237000010C02F490765CEA060600F0FB8010F097
:10238000010F18BF12F4807F03D0E66B46F0010600
:10239000E66310F0040F18BF13F0010F03D0E66BD3
:1023A00046F00206E66310F0020F18BF13F0010FAB
:1023B00003D0E36B43F00403E36310F0080F1CBF8A
:1023C00002F0200353EA0C0303D0E36B43F008034D
:1023D000E363E36B002B08BF70BD10F0200F18BF44
:1023E00012F0200F73D094F83A202046222A4BD0C6
:1023F00088E010F0200F18BF12F0200F00F0BA8014
:1024000094F83A202046222A18BF70BD8268B2F59F
:10241000805F23D0026982B3496801F07F02816A3C
:102420004B1C83620A70C18D491E0904090CC185C9
:1024300018BF70BD0168CA6822F02002CA60016836
:10244000CA6822F48072CA6001684A6922F00102F7
:102450004A6180F83A5000F0A7F970BD0369826ABA
:102460004968002B14BFC9B2C1F308011180816A09
:1024700014BF491C891C8162D5E7FFE74A68816A5D
:102480004B1C83620A70CEE78268B2F5805F0FD082
:102490000269EAB1496801F07F02816A4B1C8362DC
:1024A0000A70C18D491E0904090CC1852AD116E0A4
:1024B0000369826A4968002B14BFC9B2C1F30801DD
:1024C0001180816A14BF491C891C8162E9E719E007
:1024D0004A68816A01F1010383620A70E1E70168D9
:1024E000CA6822F02002CA600168CA6822F48072B9
:1024F000CA6001684A6922F001024A6180F83A50D4
:1025000000F052F920684169E26BC1F3801112F0CA
:10251000080F08BF002926D0C16821F49071C1605E
:102520002068416921F00101416184F83A50206836
:10253000416911F0400F12D0416921F04001416121
:10254000606B60B12D490165606BFEF7EBFD002803
:1025500008BF70BD606B016DBDE870400847204644
:10256000FFF7F9FE70BD2046FFF7F5FE0020E0639F
:1025700070BD00BF10F0800F18BF12F0800F2CD07C
:1025800094F83900212818BF70BDA068B0F5805FAD
:10259000206A16D0411C2162216800784860E08CD6
:1025A000401E0004000CE08418BF70BD2068C168A4
:1025B00021F08001C1602068C16841F04001C16024
:1025C00070BD0088C0F30800486020690028206AB8
:1025D00014BF401C801C2062E1E710F0400F14BFC4
:1025E00012F0400F70BD2046CA6822F04002CA6057
:1025F00084F8395000F0D9F870BD00003552000859
:10260000002804BF0120704770B5044690F83900D7
:10261000002520B984F83850204600F023F8242003
:1026200084F839002068C16821F40051C160204657
:1026300002F008FE2068016921F4904101612068E0
:10264000416921F02A0141612068C16841F40051CB
:10265000C160E563202084F8390084F83A00002046
:1026600070BD0000F0B587B000210091019102918A
:10267000039104910368464A464902250324A3F1C5
:102680008040B0F5A04031D04348A3F180464FF0E0
:10269000070CB6F588365FD0A3F18046B6F59046B4
:1026A0001CBF07B0F0BD136843F4802313601268A9
:1026B00002F4802205920A6842F002020A60096868
:1026C00001F0020105914FF44061CDE90015CDE91B
:1026D000034C6946FEF74CFD002211462720FEF709
:1026E000E7FE2720FEF7D4FE07B0F0BD106840F4E7
:1026F00080101060106800F480100590086840F0A9
:1027000004000860086800F004000590086840F0C4
:10271000080008600868012600F0080005904FF4E2
:102720008050CDE90005CDE9026408276946049789
:102730001A48FEF71DFD0420CDE90005CDE902642D
:10274000694604971648FEF713FD0022114635200E
:10275000FEF7AEFE3520C5E7124A136843F01003BA
:102760001360126802F0100205920A6842F0020239
:102770000A600968CDF810C001F002010591C0217E
:10278000CDE900156946FEF7F3FC07B0F0BD000087
:102790004038024030380240000402400008024045
:1027A000000C0240443802407047704782B002F08B
:1027B00019FB184CD4F82001006810F0080F0AD05B
:1027C000144802F00FFED4F820010168009140681F
:1027D000009003F0A9F9D4F82001006810F0800FF0
:1027E0001CBF0C4802F0A7FED4F82001016811F0CC
:1027F000200FDFD04068C1B2064802F0FDFD00881E
:10280000012804D0022808BF03F08EF9D2E703F0B4
:1028100085F9CFE7B4040020012908BF002115D0B5
:10282000042908BF012111D0102908BF02210DD0B1
:10283000402908BF032109D0B1F5807F08BF0421DA
:1028400004D0B1F5806F0CBF05210621084B18306C
:102850005B5C1844D0F800C0064B595C73238B4076
:102860002CEA030302FA01F11943016070470000EA
:10287000066A00080D6A000810B50446406802F0B8
:1028800048F8A168086110BD0068012102F0ABB8EA
:10289000002808BF704710B50446007E012818BF05
:1028A00010BD217B0020012904D0022910D003296A
:1028B0001ED026E0A16881F824000121606802F0A2
:1028C00056F8E28AB4F90E10606801F0D1FF0CE00E
:1028D000A16881F824000021606802F048F8E28ACB
:1028E000B4F91010606801F0C3FF50B1022009E094
:1028F000A168012081F82400A068D4F812100161B9
:10290000F4E70320207610BD01230373C181C28246
:10291000037643767047022303730182C28201214A
:102920000176002141767047006802F02AB810B5A0
:10293000406802F004F8BDE8104001F020BF407E7E
:10294000704780680068704780684068704780689A
:10295000C0687047806800697047027B0021012AC7
:1029600008BFB0F90E1008467047406801F0DBBFA1
:10297000006802F031B88068B0F91E0070478068C6
:10298000D0F81A0070478068D0F81600704783604E
:10299000C0E9001200210173C1810182C182017668
:1029A000704703220273418209148182012101765A
:1029B0000021417670478268518280688182704729
:1029C00010B504460068032102F00DF800281CBF72
:1029D0000121217610BD0068072102F004B840688B
:1029E00001F0CBBF014661F30F0044F6E61211FB84
:1029F00002F244F6E61311FB23F10A441144494262
:102A0000C913B1F5004FA8BF47F6FF7104DA11F5FD
:102A1000004FB4BF054909B261F31F4011F5004FE3
:102A200004BF48F2010161F31F4070470080FFFFBF
:102A300070B50546084600F059F82AB203B212FBF9
:102A400003F14FEA254C05141CFB05F0081AC013CE
:102A50001649B0F5004FA8BF47F6FF7004DA10F52D
:102A6000004FB4BF084600B260F30F04104E10F5DB
:102A7000004F08BF66F30F0412FB05F01CFB03F2C6
:102A80001044C013B0F5004FA8BF47F6FF7103DA3A
:102A900010F5004FA8BF01B2204661F31F4011F5A9
:102AA000004F08BF66F31F4070BD00000080FFFFAD
:102AB0000180FFFF10B50446084600F017F814FB2C
:102AC00000F12214031412FB03FC61444FEAE13CC1
:102AD00029466CF30F0114FB03F312FB00F0C01A3C
:102AE000C01360F31F41084610BD000000F500410F
:102AF000890911F4407C00F50041C1F387121749A0
:102B0000C2F1FF0319D0BCF5807F1FD0BCF5007F58
:102B10000AD0BCF5407F18BF704731F8133031F848
:102B2000121063F31F400FE031F8122031F8131038
:102B300062F31F4061F30F00704731F8122031F843
:102B40001310524262F31F404942F3E731F8133049
:102B500031F812105B4263F31F40EBE74A6700084D
:102B6000F8B58C460446DDE90710069FC4F830C06E
:102B7000C4E9300108481E4615460090074B084A34
:102B800021466046FDF720FEE763C4E90D56204666
:102B900000F08EFBF8BD0000A52B0008AD2B00084F
:102BA000A932000810B500F083FB10BD2DE9F041FB
:102BB00005468CB00020984614460E468DF8040059
:102BC0004F0912D07A1E0021284602F0C5FF0028C6
:102BD00008BF0B2000F04882D5F8C40006F01F069D
:102BE00018B17A1E002102F0B7FF132E80F0448343
:102BF000DFE806F0B50AA3B4B3B3B2B1B0AFAEAD7F
:102C0000ACABB3B3B3B3B500267805208DF808009C
:102C10004F2E78D028DC102E7ED00BDC102E6AD2FE
:102C2000DFE806F04A898958897171717171717193
:102C3000717171711C2E54D009DCA6F111000828A5
:102C400079D2DFE800F06978786060606060462ED5
:102C500062D004DC1D2E4FD0412E54D06BE0472EA5
:102C600018BF482E67D157E0752E55D014DC592E69
:102C700049D004DCA6F1530005285CD843E0642E5B
:102C800041D004DC5B2E47D0612E3CD053E0652E52
:102C900039D0742E1ED04EE0A6F1760013284AD209
:102CA000DFE800F03A3A3A3A4949493A3A4949495B
:102CB0004931313131313100647831462246D5F81D
:102CC000C40002F049FF22463146284602F044FF84
:102CD00000F02DBA62783146284602F03DFF00F040
:102CE00026BA62780021D5F8C40002F030FF012036
:102CF0001DE208E010E01EE062780121D5F8C40072
:102D000002F025FF7CE16078A17800EB01223146DA
:102D1000284602F021FF0AE26078A178227900EBD0
:102D20000121E078000400EB02600A1831462846D1
:102D300002F012FFFBE1022096E1217803208DF8DA
:102D40000800892980F08F810AE0DDE174E25CE20D
:102D50004AE222E2EEE1C4E194E18DE288E11BE285
:102D6000880000BF784440688744000024020000C7
:102D7000BE0200002402000024020000BE02000087
:102D800098020000980200009802000098020000DB
:102D900098020000980200009802000098020000CB
:102DA00098020000980200009802000098020000BB
:102DB00098020000980200009802000098020000AB
:102DC000980200009802000098020000980200009B
:102DD00098020000980200009802000048020000DB
:102DE00074020000BE020000980200009802000079
:102DF0009802000024020000FA020000FA0200001B
:102E0000FA020000FA020000FA020000FA020000D2
:102E1000FA020000FA020000FA020000FA020000C2
:102E2000FA020000FA020000FA020000FA020000B2
:102E3000FA020000FA020000FA020000FA020000A2
:102E4000FA020000FA020000FA020000FA02000092
:102E5000FA020000FA020000FA020000FA02000082
:102E6000FA020000FA020000FA020000FA02000072
:102E700098020000FA020000FA020000FA020000C4
:102E8000FA020000BE020000BE020000BE02000006
:102E900098020000980200009802000098020000CA
:102EA00024020000BE020000980200009802000008
:102EB00098020000980200009802000098020000AA
:102EC000980200009802000098020000980200009A
:102ED0009802000024020000BE020000FA02000076
:102EE000980200009802000098020000980200007A
:102EF00098020000FA020000FA02000098020000A6
:102F0000980200002402000024020000BE0200001B
:102F1000BE020000BE020000BE020000BE020000B1
:102F2000240200009802000098020000BE02000087
:102F3000FA0200009802000098020000240200003B
:102F4000BE020000BE020000BE020000BE02000081
:102F5000BE020000BE020000BE020000BE02000071
:102F6000BE020000BE020000BE02000024020000FB
:102F7000FA02000024020000E4020000E402000063
:102F8000E40200009802000098020000980200008D
:102F900001AA284602F084FB00909DF80400002856
:102FA00000F07581D5E90C0C01236A46F02100F090
:102FB0003FB900BFD5F8C400002800F05F810021B0
:102FC00002F064FB8DF80000D5E90C0C01236A4681
:102FD000F021E04701208DF804000CB0BDE8F0813D
:102FE000D5F8C400002800F04981012102F04EFB11
:102FF0008DF80000D5E90C0C01236A46F021E0476A
:10300000012094E001AA284602F04AFB00909DF8B6
:103010000400002800F03B81D5E90C0C02236A462D
:10302000F021E0470CB0BDE8F08101AA284602F08B
:1030300037FB00909DF80400002800F02881D5E9B6
:103040000C0C04236A46F021E0470CB0BDE8F08187
:1030500001AA284602F024FB00909DF804000028F5
:10306000EDD100F014B903208DF8080000F006B986
:10307000217807208DF80800284602F0A9FA8DF87B
:103080000400FBE0002004A902460A54401CC0B220
:103090002028FAD3002005E00B18401CC0B2DA70DB
:1030A0001D2804D2D5F8C020125C092AF4D1D5F825
:1030B000C010421D20238A5C8DF81020C21D0930EB
:1030C000895C8DF81110D5F8C01004AA085C8DF841
:1030D0001200D5E90C0CF021E04701208DF8040026
:1030E000CFE020796179E37800EB012082B220788B
:1030F000617800EB0120A178090401EB0361014430
:10310000284602F0A1FA12E020796179E37800EB19
:10311000012082B22078617800EB0120A1780904B7
:1031200001EB0361084401B2284602F0A5FA8DF8CC
:103130000400A3E006A80090217807AB03AA284664
:1031400002F066FCBDF91C005449C0EB0010800081
:1031500081FB00108110A1EBE0708DF81000010AD6
:103160008DF81110010C8DF81210000E8DF813005F
:10317000BDF818008DF81400000A8DF81500BDF890
:103180000C008DF81600000A8DF81700D5E90C0C1C
:10319000082304AAF021E04770E0E079227A23793D
:1031A00000EB02201FFA80FC6078A278217800EB07
:1031B0000220E278120402EB0362104400EB80006C
:1031C000374B40000022C3FB00204211A2EBE0700D
:1031D00003B26079A27900EB022000B2009062464F
:1031E000284602F087FDA2E721786078A27801EBFB
:1031F000002001B2E07802EB002002B2284602F083
:1032000099FC01208DF804003BE00C208DF80800AB
:1032100004948DF81480234904A802F03FFA8DF835
:10322000040058B31F48F02103790268D5E90C0C5B
:10323000E0470CB0BDE8F081002004A904E00A5486
:10324000401CC0B220280DD2D5F8C020125C002A44
:10325000F5D1202838BF002204D20A54401CC0B245
:103260002028FAD3D5E90C0C20230A46F021E047A8
:1032700001208DF8040004E00120F5E69DF804002B
:1032800028B10023D5E90C0C1A46F021D0E7D5E986
:103290000C0C012302AAFF21CAE7000067666666DC
:1032A000898888880C00002010B500F001F810BD56
:1032B00010B50446006BE16B8847802084F8C80095
:1032C000A16B206BBDE81040084700000148006872
:1032D000FFF74EBB0400002006480078002808BF16
:1032E000704710B500F008F801F022FFBDE810406B
:1032F00002F0F4BB2406002010B50E4C2078012803
:1033000018BF10BD608800281CBF6088401E02D115
:1033100001F0E4FD01206080A08810B1A088401E6B
:10332000A080E088002808BF10BDE088401EE08033
:1033300010BD000024060020014602480068FFF787
:1033400030BB00000400002001480068FFF738BBD4
:103350000400002001480068FFF73DBB0400002086
:103360002DE9F35F614801F039FB614E002406F15D
:10337000480134705F480860A1F108085E48C8F849
:10338000000000F0D9FC03F06DF95C4800F0A7F9EB
:1033900006F1240B5948CBF80000594800F09FF97A
:1033A00006F128095648C9F8000006F120055548DD
:1033B00028605548FDF758F9534B544A544829683A
:1033C000FDF74CF805F1140151480860DBF80010D6
:1033D0004D4A286801F0BBFA4C4802F056FD4D48B2
:1033E00000F07DF94C4800F07AF905F10C0A4948E3
:1033F000CAF8000005F11000474901604748B06372
:1034000001F0B2F905F1240145480860B16B454F60
:10341000C0E94371444800F017F905F11C00424926
:10342000016005F12C014148086001F017F9002006
:10343000FDF74CFA012087F82400286801F069FAAA
:103440003861286801F065FA0014B88207F1280095
:103450002F1FA0F12803386005F130012A68FFF71B
:1034600096FA286801F065FA3B6801460022184682
:10347000FFF74AFA0098396801602D48DBF8001020
:103480000160DAF80010416005F110010968C0E937
:103490000214D8F80010C0E904141B49C0E906144E
:1034A00004622968416205F13001816214390968BA
:1034B000C162B16BC0E90C1405F124018463096891
:1034C000C0E90F1444648464C4640465D9F800102E
:1034D0004165184981651849C16518490166019916
:1034E00008600120307002B0BDE8F09F7406002033
:1034F0002406002000040020E00100202801002014
:10350000F0050020AC010020940200205C020020A5
:1035100010030020540100208001002054030020EB
:1035200014000020480900202C030020E80300209C
:103530008C0900201C0600201E060020200600200A
:10354000B0F80031002220F81310B0F80031A0F8D4
:1035500002315B1C9BB2A0F80031802B24BF0023FA
:10356000A0F800315FF0000330F913C05B1C9BB280
:103570006244802BF8D3D31702EB5362D211A0F828
:1035800004210846704700210A4620F81120491CF2
:1035900089B28029F9D3A0F80021A0F80221704750
:1035A000B0F904017047000008B5FEF779F84FF450
:1035B000FA61B0FBF1F0FEF7B1FB0749081FFFF716
:1035C000CFFE02F0C9FF044B04481A1F00900121EE
:1035D000101F02F0ABFB08BD0800002026670008A2
:1035E00010B504460078002818BF002012D194F8C6
:1035F000260000F04FFFA0F57F41FF3907D0218B57
:10360000238A4A1E03FB0200B0FBF1F02082204611
:1036100000F02CF8E08280B210BD002101827047DA
:103620000178002918BF808A01D000B27047018A52
:10363000026A891AB0F91E20808C5143CA1701EB27
:10364000124100EB2140F0E710B50446007820B1AC
:103650000020E082608A208210BD201D00F07CFFE7
:1036600084F826002046FFF7D8FF10BD018A428B60
:10367000914284BF08207047828B8A428CBF002011
:10368000C08A704770B50446B0F92200A8B1A26A9A
:103690008A1A504394F82620A16240FA02F5204687
:1036A00000F030F8B4F914102844814203DBB4F977
:1036B0001610814204DD084602E0204600F022F8A0
:1036C00000B270BDB0F922007047B0F90600704733
:1036D000408B7047B0F904007047008B7047018839
:1036E00081804188C180018C418400218160816298
:1036F00070478160704741847047C1807047818006
:103700007047000070B4B0F90420002402FB01F6F9
:10371000B0F90620B0F914C0B0F91630002A04BF81
:103720000021816014D085684A43A91805D5002D71
:10373000C4BF002A6FF0004103E0002DBCBF002A87
:103740000F49C2688A42A5BF0269914282608160C6
:10375000827F8168057F41FA02F246FA05F52A4424
:103760006245C4BFACEB0204624603DC9342C4BFB3
:103770009C1A1A462144816070BC10B27047000048
:103780000100008070B5D0F80C110446C868D1F86B
:10379000161010FB01F210FB3121C81701EB10408D
:1037A0000514D4F8100102F055FBD4F80811484371
:1037B0004FF4167190FBF1F0684300EB40000849AC
:1037C000400081FB00108110A1EBE071C81701EBF4
:1037D000104001142046BDE87040FFF7B1BE000064
:1037E00067666666C169084770B50446002511B171
:1037F000012908D017E000F007F9B4F85200A4F846
:10380000440080B90BE0B4F84400002808BF01254B
:1038100009D0401E0004000CA4F8440003D1216923
:10382000204688470125284670BD4268104730B4BD
:10383000038E0AB253430A14B0F850104A435200A0
:10384000524202EB030CA2EB03030CEBDC7C03EB18
:10385000D3735FEA6C0C4FEA63034FEA910153D5CF
:10386000002B18DA042280F83A20ACEB0302D417BC
:1038700002EB943201EBA241DA1703EBD23201EBF7
:1038800062434FEAEC720CEBD232A1EB624CA0F82F
:103890003CC0C1876CE0002A1BDC4FF0030C80F8B1
:1038A0003AC0A2EB030C4FEAEC740CEB943C01EB36
:1038B000AC414FEAE37C03EBDC334FEAE27C01EB03
:1038C000634302EBDC32A3EB624CA0F83CC0C3873D
:1038D00017E0022380F83A30ACEB0203DC1703EB6D
:1038E000943301EBA3414FEAEC730CEBD333A1EB20
:1038F000634CD31702EBD3320CEB62438387A0F8FF
:103900003EC0A0F8401052E0002B17DB012280F8E7
:103910003A20ACEB0302D41702EB943201EBA24144
:10392000DA1703EBD23201EB62434FEAEC720CEB95
:10393000D2328387A1EB624CC18736E0002A1ADCC1
:10394000052380F83A30ACEB0203DC1703EB943329
:1039500001EBA3414FEAEC730CEBD333A1EB634CC7
:10396000D31702EBD33281870CEB6243A0F83EC041
:10397000A0F840301BE04FF0000C80F83AC0A2EBFA
:10398000030C4FEAEC740CEB943C01EBAC414FEAB6
:10399000E37C03EBDC3301EB63434FEAE27C02EBB5
:1039A000DC328187A3EB624CC387A0F840C089B2A8
:1039B0009AB2418682861FFA8CF3C386B0F84EC055
:1039C000BCF1010F02D0816930BC0847B0F948C092
:1039D000BCF1000FB0F854C0CCBF6144A1EB0C01A6
:1039E0004186B0F94A1000291FFA8CF1CCBF11446E
:1039F000511A8186B0F94C1000291FFA8CF1CCBF06
:103A00001944591AC186DEE781680847816F91F829
:103A10008F20022A0DD1CA68098B09049161826F37
:103A20001169928B12048A61816F4A69098C0904B9
:103A30009161012180F87410463070472DE9F047FC
:103A40000446806F00278568E7652766676684F807
:103A50007370286A20F0550020F4A0602862404965
:103A6000616040490326A16184F87260204684F8B1
:103A70003A6000F012FCA06F04F1730304F1380106
:103A800090F88E20284602F01DFE204600F0DCFB58
:103A900084F873703449616084F87270204684F849
:103AA0003A7000F0FAFBA06F04F1730304F13801DF
:103AB00090F88E20284602F005FE204600F0C4FB58
:103AC000E06D2C4BC108E165206E05F11809C108B5
:103AD0002166606EC1086166244961602449A16164
:103AE000187800EB09021168D81D4FF0080890F80B
:103AF00000C008FA0CFC21EA0C01116099784944D5
:103B0000D1F800A0877808FA07F72AEA070AC1F86F
:103B100000A01B794B44D3F80090007908FA00F814
:103B200029EA08001860B4F870006863B4F87000FF
:103B3000A863B4F87000E863106840EA0C001060F5
:103B4000086838430860186840EA0800186084F87C
:103B50003A60296A40F2555008432862BDE8F08770
:103B6000A53C00087F410008FB3C0008793B0008A9
:103B7000C3410008066A000870B4826F9268136A35
:103B800023F48053136290F83AC02422836F02EB2F
:103B90008C029A5814684FF6FF7202EA44053C24DE
:103BA00004EB8C041B591B6802EA43043C4A530C87
:103BB000BCF1060F66D2DFE80CF01D414103031D86
:103BC000D0F85CC0ACEB050C1CF5004FD8BF0A80E8
:103BD00005DDBCF5004FACBF0B80A1F800C0D0F8EC
:103BE00060C0ACEB040C1CF5004F47DDBCF5004F8A
:103BF0003FDA45E0D0F860C0ACEB050C1CF5004F97
:103C0000D8BF4A8005DDBCF5004FACBF4B80A1F8A2
:103C100002C0D0F864C0ACEB040CB1F90240A4447B
:103C2000CCF1000CBCF5004FA8BF0B802ADA1CF5C4
:103C3000004FD4BF0A80A1F800C023E0D0F85CC0D8
:103C4000ACEB050C1CF5004FD8BF0A8005DDBCF5B8
:103C5000004FACBF0B80A1F800C0D0F864C0ACEB43
:103C6000040CB1F90040A444CCF1000CBCF5004FA9
:103C700001DB4B8006E01CF5004F01DC4A8001E0CF
:103C8000A1F802C00A88A0F848204A88A0F84A2073
:103C90000A88498811444942A0F84C1070BC70470A
:103CA0000180FFFF826F9268136A23F480531362CE
:103CB00090F87320102A1CD290F872304FF0240C28
:103CC000826F0CEB8303D2581268C36D4FF03C0C2B
:103CD0001A44C26590F87230826F0CEB8303D2589D
:103CE0001268036E1A44026690F87320521C80F822
:103CF00073200020088048807047826F9268136AA2
:103D000023F48053136290F87320102A10D290F895
:103D100072304FF03C0C826F0CEB8303D258126868
:103D2000436E1A44426690F87320521C80F8732048
:103D3000002008804880704730B4836F9968D3E9C9
:103D40000023D1F800C02CF0010CC1F800C0D0F85D
:103D500078C09CF890C0BCF1000F09D06FF0800CC7
:103D6000C1F810C0D1F80CC04CF0800CC1F80CC0E8
:103D7000D1F814C04CF0010CC1F814C0D0F878C0D0
:103D80009CF88C40022C05D090F846C0BCF1000F86
:103D900017D01CE09CF88D40012C04BF9CF88EC00D
:103DA000BCF1030F0DD14FF0010CC1F830C0D1F8B8
:103DB00014C04CF0010CC1F814C04FF0030CC1F852
:103DC00030C0B0F870C0ACF1010CC1F824C00C6A6E
:103DD00040F2555C44EA0C0CC1F820C0DFF86CC01E
:103DE000A1F180454FF48014DCF80C10B5F5803556
:103DF0000CBF41F0010141F00201CCF80C100EBFE4
:103E000084664FF4F0118166916841F00101916080
:103E1000996841F0010199606FF0040111605168E7
:103E200041F080015160D16A21F47001D162916B3F
:103E300021F440119163996B21F4401199630021A1
:103E4000C466A0F84E1030BC70470000002004E0AB
:103E500090F874200021012A03D14021002280F82B
:103E6000742008467047000070B50546806F84686E
:103E700095F84700012818BF70BD60220121204637
:103E8000FEF7CAFC206A40F001002062A86F90F89B
:103E90008F00012804BF206A40F0040005D00228EA
:103EA00004BF206A20F0040000D12062B5F8700041
:103EB00040086063602210212046FEF7ADFC206AB6
:103EC00040F010002062A86F90F88F00012804BF16
:103ED000206A40F0400005D0022804BF206A20F08C
:103EE000400000D12062B5F870004008A063602255
:103EF0004FF480712046FEF78FFC206A40F48070FA
:103F00002062A86F90F88F00012804BF206A40F457
:103F1000806005D0022804BF206A20F4806000D1B0
:103F20002062B5F870004008E06306486860064803
:103F300068610648E8600648A860002085F84700E8
:103F400070BD0000793B0008494400089B4200080E
:103F50004942000870B50546806F846895F84700AF
:103F600000283ED1602201212046FEF755FC206A40
:103F700040F001002062206A20F00400206200204E
:103F80006063A86F90F88F00012802D002280DD03E
:103F900019E0102211462046FEF73EFC206A20F070
:103FA00010002062206A40F040000BE02022102127
:103FB0002046FEF731FC206A40F010002062206AA3
:103FC00020F04000206270224FF480712046FEF7FE
:103FD00023FC206A20F480702062206A20F4806034
:103FE000206206486860064868610648E86006483E
:103FF000A860012085F8470070BD0000414000081E
:10400000394100088940000849420008836FB0F830
:1040100070C002469B680CFB01F1090C4186596394
:10402000032180F83A10186A10F4805018BF01205C
:10403000118F012918BF7047012000211187704797
:10404000826F9268136A23F48053136290F83A30B7
:104050004FF03C0C826F0CEB8303D2581268006E59
:10406000524200EB4200074A9042D8BF104605DD9D
:1040700047F6FF729042A8BF47F6FF70088048805D
:10408000704700000180FFFF10B4816F6FF00103E3
:1040900089680B610A6912F0010FFBD00B610122E4
:1040A0004A63B0F87020521F0A640A6912F0010FC7
:1040B000FBD00B614A6C42F480624A644A6C42F461
:1040C00000424A64826F92F88FC0BCF1020F2CD17B
:1040D000D1F820C040F255541CEA040FD2F80CC0AD
:1040E00010D09269CCF81820D0F878C0DCF81020F5
:1040F000DCF81CC0C2F818C0826F5069128C120420
:10410000826112E0128B1204CCF81820D0F878C02B
:10411000DCF81020BCF81CC04FEA0C4CC2F818C0E8
:10412000806F4269008C000490610B61C86840F0A8
:104130000100C86010BC7047816F002289684A6323
:10414000931E0B610A6912F0010FFBD00B614A6CE0
:1041500042F400424A64816F91F88F20022A18BF0E
:104160007047CA6889699161826F1169928B1204E4
:104170008A61806F4169008C0004886170474FF448
:104180008011C16690F8721080F83A10B0F8701083
:10419000491E8AB20146806F4B8E806843638B8EC6
:1041A0008363CB8EC3630264006A10F4805018BF2F
:1041B00001200A8F012A18BF7047012000220A87B8
:1041C000704730B4856F818FB0F87020B5F88640A5
:1041D000A2EB010CC38F1FFA8CFCA44506D9032166
:1041E00080F83A1091B2491E89B215E0CB1A9BB201
:1041F000B3EB4C0F84BFB5F88820891A0BD8214443
:1042000089B2914208D34FF40012C266B0F8702010
:10421000C1EB4201491E89B2AB680246408E586329
:10422000908E9863D08ED8631964186A10F4805009
:1042300018BF0120118F01291CBF30BC704701201D
:104240000021118730BC7047816F8968CA6822F0ED
:104250000102CA60002280F842204A6C22F4004227
:104260004A64826F92F88F30022B0DD1D368128B83
:1042700012049A61836F1A699B8B1B049361826F8E
:104280005069128C120482616FF001020A610869A0
:1042900010F0010FFBD00A61704710B4816F00224B
:1042A000896880F84220B0F8702052084A63B0F85C
:1042B000702052088A63B0F870205208CA63B0F8C0
:1042C0007020521F0A646FF001030B610A6912F03B
:1042D000010FFBD00B614A6C42F480624A644A6C65
:1042E00042F400424A64826F92F88FC0BCF1020F20
:1042F0001BD1D1F820C040F2555434EA0C0CD2F84E
:104300000CC019D0128B1204CCF81820D0F878C049
:10431000DCF81020BCF81CC04FEA0C4CC2F818C0E6
:10432000826F5069128C120482610B61C86840F080
:104330000100C86010BC70479269CCF81820D0F812
:1043400078C0DCF81020DCF81CC0C2F818C0826FFE
:104350005069126AE8E730B4D0F878C0DCE900129E
:10436000DCF808300C6804F00C04082C05D0002C94
:1043700008BFBCF884C008D018E0D1F800C00CF029
:104380000C0CBCF10C0FF8D110E05C6A6445FCD356
:10439000D1F800C00CF00C0CBCF1080F06D1D1F81C
:1043A00000C00CF00C0CBCF10C0FF8D1D1F808C017
:1043B0002CF4401CC1F808C0D2F808C02CF4401CF2
:1043C000C2F808C0D0F878C010F83A4F542505EB71
:1043D00084045CF804C0C1F838C0D0F83EC010F8BE
:1043E0002E4B6C2505EB84045CF804C0C2F838C081
:1043F000D0F800C08C680CF4702C24F4702444EACB
:104400000C0CC1F808C050F804CB94680CF4702C64
:1044100024F4702444EA0C0CC2F808C0D3F820C07D
:104420004CF4805CC3F820C00368D1F808C04CEAA3
:1044300003038B6001689368194391604FF4801106
:1044400040F8261930BC7047816F0122D31E89685D
:1044500080F842200B6100224A638A63CA630A69BA
:1044600012F0010FFBD00B614A6C42F400424A6427
:10447000816F91F88F20022A18BF7047CA68896936
:104480009161816F0A69C9699161816F4869096A9F
:10449000816170471D4910B451F82020D2F800C046
:1044A000127902EB4203092A99BF4FF0007444EAE3
:1044B0000353174C04EB03531A434FF4407494FA1C
:1044C000A4F44FF40073B4FA84F4E3400CEB8303D8
:1044D000D3F82CC002F01F022CF01F0C4CEA020291
:1044E000DA6251F820201268D36C0123520102F1E4
:1044F0008442C2F8783151F820000068016811F058
:10450000020FFBD0C06C10BC80B27047F0090020D5
:10451000000020FE10B50E4C6078012818BF10BDB9
:104520002078FFF7B7FF6080014602206070094ADB
:10453000207852F83030002B08BF10BD4FF0000C2F
:1045400002EBC00284F801C05268BDE81040184771
:104550007A060020000A002070B4FF223C4B0021A4
:1045600053F821C0BCF1000F1DD09CF80440057920
:10457000AC4206D1DCF800C00468A44504BF0A467A
:104580000421491CC9B20429EAD3042A5CD243F8A5
:104590002200304B002143F8321001688B6813F081
:1045A000010F1AD103E0042A88BF0A46E9E74B68E5
:1045B00023F020034B6001686FF002030B60016879
:1045C0004B6823F080034B6001686FF004030B60BD
:1045D00001688B6843F001038B600168CB6A23F4A8
:1045E0007003CB620179D0F800C04FF00074092944
:1045F00001EB410392BF44EA0353174D05EB03530C
:104600001943836894FAA4F401F00070B4FA84F4B6
:10461000E0400CEB8000C46801F0F87C4FF0F871CA
:1046200091FAA1F5B5FA85F591FAA1F12CFA05F503
:104630000726B1FA81F106FA05F52CFA01F1AC432F
:1046400003FA01F12143C16070BC104670470000BD
:10465000F0090020000A0020000020FE00218160F7
:104660004160C160016101214161704790F84800DB
:10467000704701EB410100EB81008089704701EB3D
:10468000410100EB8100B0F90E00704701EB4101E0
:1046900000EB8100B0F91000704701EB410100EB25
:1046A00081008281704701EB410100EB8100C281F2
:1046B000704701EB410100EB81000282704700006E
:1046C00070B5044690F82600FFF7E4FEA0F57F41A0
:1046D0008446FF3921D094F82510206A20F811C0B3
:1046E0000021228B0846002A88BF236A07D900BF11
:1046F00033F81050401CC0B229448242F8D8B1FBB4
:10470000F2F0E080A4F804C094F82500511E88421D
:10471000B4BF401C002084F82500204600F002F8B9
:10472000208170BDC188428B914284BF02207047B6
:10473000808B88428CBF042000207047418B828B85
:10474000038B11444A080021002B07D9036A23F880
:104750001120491C038B89B28B42F7D88280C2801A
:10476000002180F82510704710B504460C30FFF783
:10477000F3FE84F826002046FFF7E0FF10BDB0F9F5
:104780000C007047B0F904007047B0F91000704792
:10479000B0F90C10B0F91400C1EBC13191FBF0F08D
:1047A00000B2704730B4B1F90050012490F803C052
:1047B00000230278002DBABF694289B20988858A30
:1047C0008D4238BF0123C58A8D4288BF0123B0F9CD
:1047D00012100029BABF494289B2418A058B8D4225
:1047E00028BF002B04D062453CBF511CCAB202E076
:1047F000624538BF0022624508BF0024027020468F
:1048000030BC704770B50546007800280CBFAC6816
:104810006C68E968012904D9AA69A1F1010114446D
:1048200005E005D169884FEA01444FF00001E960D5
:10483000012805D0E01704EB10400014AC6070BDF7
:10484000E01704EB104006146869FFF798FF301A70
:1048500001B22869FEF756FF0104C5E9014170BDA8
:104860000178012918BF704700690021FEF741BF98
:104870002DE9F0410446007817460D46012660B147
:104880006068C11700EB1140E18B0014A942A4BF7E
:10489000B4F924108D4212DA0FE0204600F051F8EE
:1048A000E18CA94205DAB4F9281000268D421CDA01
:1048B00003E0B4F928108D4208DA002615E0218CB7
:1048C0008D42BCBFB4F92210A942F6DB87B16580E6
:1048D000A18B4FF47A727943B1FBF2F1491C281A8B
:1048E000000490FBF1F0E160A0613046BDE8F0818A
:1048F00021782804012914BFA06060600020E060D6
:10490000F2E710B504464069FFF739FF0004606024
:1049100010BD0146C28D098E62F30F0061F31F4086
:104920007047C08B70474068C11700EB11400014FE
:104930007047B0F92C007047B0F924007047406907
:1049400070478068C11700EB114000147047C0E940
:10495000041290F82A100170818D09044160C18D04
:104960000904816000214180C1608161704701704C
:104970000021C1607047416170470021C1608161C1
:104980007047027800210B2A04D10921017000210F
:104990008180012108467047B0F802C003784CEAD4
:1049A000010C2CEA02024280B0F804C00A2B4CEA47
:1049B0000101818005D012B10A2101700B46184611
:1049C0007047002AFBD10B2101700B46F7E7818865
:1049D000408841EA0040704700787047002101702C
:1049E00041808180704710B502780024152A6CD26E
:1049F000DFE802F00E1B3033525E636669706B6B4A
:104A00000B21262B3D424D584800002966D05CE022
:104A100003291CBF01290C2960D0072903D00022DB
:104A20008021FFF7B9FF204610BD07291CBF0D29C3
:104A30000E2953D049E00E2918BF07294ED044E073
:104A40000F2918BF072949D03FE0022918BF0729BD
:104A500044D03AE0072941D037E0072918BF102990
:104A60003CD004291CBF1129012937D02DE0112980
:104A700018BF072932D028E012291CBF07291429A2
:104A80002CD022E0122918BF072927D01DE00429C5
:104A900018BF072922D018E013291CBF07290529B0
:104AA0001CD012E004291CBF0729052916D00CE0F0
:104AB000062918BF072911D007E007290ED004E006
:104AC00008290BD001E0092908D0032918BF0129C2
:104AD000A9D0A2E7002918BF0C29F6D14FF0010494
:104AE0000170A0E710B5084C2078022805D1FCF72A
:104AF00071FCFDF729F900202070C0B2401C207025
:104B0000BDE81040FEF7E8BB7E06002030B593B04C
:104B10000025224802950395049505950C950D9561
:104B20000E950F951095016841F080510160006865
:104B300000F0805011901A48016841F480410160F2
:104B40000068022400F480401190012000900004CD
:104B500001908001CDE906400420CDE90A40A8215A
:104B6000CDE908016846FCF7FBFD08B172B6FEE727
:104B70000F20CDE90C044FF4A050CDE90E504FF4B6
:104B80008050109005210CA8FCF7D6FC08B172B635
:104B9000FEE7FCF77FFD13B030BD00004038024057
:104BA000007000400448016841F47001016003494D
:104BB0004FF000600860704788ED00E008ED00E00D
:104BC000084810B5806F8068016911F0800F05D02A
:104BD0006FF0800101610348FEF718FFBDE8104047
:104BE000FEF78ABBE001002004486FF00101806FEE
:104BF000806801610148FFF7AEBB0000E0010020C2
:104C00000748006AC16811F0010F1ABF016911F06D
:104C1000010F70476FF0010101610148FBF710BD02
:104C200094020020F0B402682C4B2D4C2D4D2E4EDA
:104C3000DFF8B8C0984218BFB0F1804F07D0A0424B
:104C400018BFA84203D0B04218BF604504D14F68D6
:104C500022F0700247EA0202984218BFB0F1804F7A
:104C600025D0A04218BFA84221D0B04218BF60454D
:104C70001DD0A0F18044B4F5A0341CBFA0F1804445
:104C8000B4F5A23413D0A0F18044B4F5A4341CBF11
:104C9000A0F18044B4F5C05409D0A0F18044B4F52B
:104CA000E0541CBFA0F18044B4F5005403D1CC689B
:104CB00022F4407222434C6922F0800222430260B7
:104CC0008A68C2620A688262984212BF60450969B6
:104CD00001634FF001014161F0BC704700000140E9
:104CE0000004004000080040000C004000040140A7
:104CF00002689368D1F804C023F070034CEA030300
:104D0000D1F800C023F007034CEA030393604A681C
:104D100012F00F0F59D11211082A56D2DFE802F013
:104D200055555555122B41040068D1E90232D1F88E
:104D300010C0816843EA0C2321F47F411A431143D8
:104D4000816042E00A68052A04BF012070470268BA
:104D5000136AD2F820C02CF0010CC2F820C00268FF
:104D6000D2F818C009692CF0F00C4CEA01119161DD
:104D70000068036229E000680B698A68016AD0F85C
:104D800020C02CF0010CC0F820C0D0F818C021F0D1
:104D90000A012CF0F00C4CEA031311438361016209
:104DA00013E000688A680969036A23F0100303624C
:104DB000D0F818C0036A2CF4704C4CEA013123F08F
:104DC000A00343EA021281610262002070470000E2
:104DD000034900208988002908BF0120704700008E
:104DE00024060020054810B50068FFF72DFA0022C0
:104DF000BDE8104080210248FFF7CEBD64060020C8
:104E0000740600202DE9F84F4FF0000A2E48FBF7FA
:104E100055FB02212D48FCF7CBFA2D480068FFF71F
:104E20008EFD8346FFF7AEFCDFF8A8900746694683
:104E3000D9F80000FEF7F9FC0098FDF7D3FD804695
:104E40003946FDF7F5FD244C064631B2B4F91000A1
:104E5000411AA9F114000068FEF754FC60F30F0535
:104E6000B4F91200A0EB2641A9F110000068FEF78A
:104E700049FC294660F31F4109F108000068FBF76F
:104E80004BFA05465846FFF780FC39462846FDF7A1
:104E900011FE83465946D9F80000FEF7C8FCC4F855
:104EA00016500099E660C4E90018C4F81AB02784C7
:104EB000012805D10022012109F11000FFF76CFD46
:104EC0005046BDE8F88F0000940200200010024018
:104ED00044060020640600204809002038B5002060
:104EE000ADF8000069468948FBF7FFFA884800687A
:104EF000FEF748FC8748FFF76FFD132828BF38BD31
:104F0000DFE800F00A60A1199CC4D7DFF5FF18188C
:104F1000186C7B8832414E007F48FBF79DFA0028D1
:104F200008BF38BD00217C48FBF7A1FA032179486E
:104F3000FFF759FD38BD7848FBF797FA58B1774825
:104F40000068FFF781FA142000F058F91021714829
:104F5000FFF749FD38BD01216F48FBF788FA0121B1
:104F60006C48FFF740FD38BDFFF732FF002808BF4F
:104F700038BD6A4800210068FEF736FC11216548FB
:104F8000FFF731FD38BD654801210068FEF72CFCB4
:104F9000002808BF38BD12215E48FFF724FD38BD48
:104FA0005A48FBF737FB04215A48FFF71CFD00283D
:104FB00008BF38BD0020FBF789FC58480068FFF7A0
:104FC0006CF938BD55480068FFF73EFA142000F030
:104FD00015F90D214F48FFF706FD38BDFFF7F8FE24
:104FE000002808BF38BD4D4800210068FEF7FCFBD3
:104FF0000E214848FFF7F7FC38BD484801210068FA
:10500000FEF7F2FB002808BF38BD0F214148FFF72B
:10501000EAFC38BD4249012081F824004148424958
:105020000068FFF7A8FC3C48FBF723FA0221394847
:10503000FFF7D9FC002808BF38BDBBE7052135487C
:10504000FFF7D1FC38BD3448FBF7ECF990B1334899
:105050000068FFF7F9F8334C01212068FFF787FC5F
:105060002A492068FFF787FC072104F13000FFF789
:10507000BAFC38BD002060F30F042A480068FFF72F
:10508000C1FB60F31F442648046138BD0020FBF7D4
:1050900053FC0020FBF7A0FB06211E48FFF7A3FCF2
:1050A00020480068FFF72DFC20480068FDF7F0FB62
:1050B00038BD1E480068FDF7EBFB0020FBF78CFBBA
:1050C00038BD16480068FFF7BFF80020FBF7FEFB6D
:1050D0000F480068FEF757FA4FF4487000F094F854
:1050E00008210C48FFF77FFC38BD0AE0FFE700F01D
:1050F00091F8002808BF38BD09210648FFF773FC66
:1051000038BD00210348FFF76EFC38BD9402002033
:1051100068060020740600201003002064060020AA
:1051200048090020440600205C02002040060020C0
:1051300006480078012818BF704710B5002000F01D
:1051400007F8BDE81040FFF7E5B90000240600208D
:10515000F8B50446234800680090234850F824001E
:10516000FEF73EFA3DF81410204F00EA010557F80B
:105170002400FEF737FB054344B9A7F14000806BDC
:10518000FFF79EFABDF8001008400543E84382B2DD
:10519000174804EB440100EB410629463046FFF76F
:1051A000FBFB3046FFF718FC0A2806D00B2804BF8B
:1051B00057F82400FEF728FCF8BD0E4850F82400EC
:1051C00000281CBF0021FBF752F957F82400FEF716
:1051D0001BFC2046FBF77AFB074850F82400FEF73B
:1051E000D2F9F8BD48670008600600206406002078
:1051F00074060020580600206806002001498880B7
:1052000070470000240600200149C8807047000054
:105210002406002003490020C988002908BF012076
:1052200070470000240600200148FDF795B80000F3
:105230002408002010B5806B0021C185C184FDF7D2
:105240008AF810BD2DE9F041044600680169E26862
:1052500021F44051114301612169A068E2690843CA
:105260006169114308432168CA6822F4037222F479
:1052700014421043C86020684169A26921F440715A
:1052800011434161E16919263227B1F5004F4F4AB8
:105290004F48504D21684FF0000825D0814218BF7B
:1052A000914270D1FCF712FA61688B0F8A00A0FB63
:1052B0000601FAF785FF0146A5FB012040096FF0C2
:1052C0001802424301EB820107EB0111A5FB01210A
:1052D000490901F0F00202EB001001F00F0108444F
:1052E00021688860BDE8F081814218BF914224D1D5
:1052F000FCF7ECF961684A18A0FB060148EB0803CB
:10530000FAF75EFF0146A5FB0120420908466FF04F
:105310001801514300EB810007EBC000A5FB001012
:105320001301400900F0F80103EB410100F0070010
:10533000084421688860BDE8F081FCF7B7F961682E
:105340004A18A0FB060148EB0803FAF739FF0146AB
:10535000A5FB0120420908466FF01801514300EBFC
:10536000810007EBC000A5FB00101301400900F00D
:10537000F80103EB410100F0070008442168886050
:10538000BDE8F081FFE7FCF791F961688B0F8A00B7
:10539000A0FB0601FAF714FF0146A5FB0120400916
:1053A0006FF01802424301EB820107EB0111A5FBEC
:1053B0000121490901F0F00202EB001001F00F0198
:1053C000084421688860BDE8F081000000140140B5
:1053D000001001401F85EB51002180F81C1170471F
:1053E000FBF7DDB908B508218DF8001001236A46E6
:1053F000FF2100F075F808BD38B590F81C212B4D41
:105400000446002A4FD094F81D31C9B28BB1002256
:10541000012B15D094F89AC00CF1020C63451AD2F6
:1054200004F19900195494F81D01401C84F81D01E1
:1054300039E084F89910208A60821D4D0120F5E73B
:1054400084F89A10022084F81D01C8B2802828BF71
:1054500084F81D2127E084F81B116282D4F8200112
:10546000144DC16821F02001C16084F81C2104F1B1
:105470009900FBF77DF994F81B1188420AD1D4F802
:1054800008C094F89A3094F8991004F19B022068AF
:10549000E04708E00A208DF8000001236A46FF215A
:1054A000204600F01DF8284638BD0000146A0008A8
:1054B000166A0008186A000890F81C1100291CBF21
:1054C00001207047002180F81D11012180F81C1176
:1054D000D0F82001C16841F02001C160022070476E
:1054E00010B5044690F8970000281CBF012010BD9D
:1054F00004F1160C2175581E6375C0B207D300BFA6
:1055000012F8011B401E0CF8011BC0B2F8D204F1C6
:105510001400FBF72DF984F89600002184F8981008
:10552000012184F89710D4F82001C16841F080016E
:10553000C160022010BD90F897200146002A08BFE4
:10554000704791F89820002A08BF0A7D0CD0012AE4
:1055500008BF4A7D08D04B7D9B1C9A423ABF01F19F
:105560001403D25C91F89620D0F820315A604B7D1C
:1055700091F898209B1C9A423EBF501C81F89800DD
:105580007047D1F82001C26822F08002C26000207A
:1055900081F89700D1E9000108478169002908BF17
:1055A000704708474169002908BF70470847000055
:1055B00070B5064C0546A06800F04FFAA84218BF27
:1055C00070BDA068BDE87040FFF7E7BF800600200F
:1055D00070B5026A90F82C000124122952F820506C
:1055E0002ED2DFE801F02D1A16092E2E121E2226C9
:1055F0002D2D2D2D162D2D2A2846FDF7B9F906281B
:1056000004BF2846FDF7EBF91BE02846FDF7B0F98B
:1056100018B12846FDF7DFF913E02846FDF7D0F969
:105620000FE02846FDF780F90BE02846FDF72CF93E
:1056300007E02846FDF720F903E000F01DFA00E03E
:105640000024204670BD000010B5036A90F82C00BD
:1056500001EB8101DFF81CC053F820004B00002152
:10566000CCFB03135911A1EBE37109B2FDF74CF91F
:10567000012010BD8988888810B5036A90F82C0035
:1056800053F82000FDF747F9012010BD034689209B
:105690009A68002A08BF70471846104700207047D4
:1056A0002DE9F0418446436A90F82C00DCF8204054
:1056B000012553F8203054F820600020002A18BF3C
:1056C0001570D04C232900F0728115DC232943D2B8
:1056D000DFE801F04E5358985D6A6F7492BEC3C8FC
:1056E000CDD3D8DD424242424242424242797EE23A
:1056F000E7F183EFEE42ED00022730297AD00BDC90
:10570000A1F124010C2927D2DFE801F0F5F4F3D34D
:10571000D2F2F1F0EFEEEDF66E296CD010DC4029FC
:1057200000F0298107DC3D297DD03E297CD03F292E
:1057300000F0168110E0412977D05B2967D00BE09B
:10574000722908BFBDE8F0810CDC6F297BD070297D
:1057500004BFAD48BDE8F081002A1CBF00211170D4
:10576000BDE8F081732918BF8129F5D1BDE8F0812A
:10577000604600F072F9BDE8F081986ABDE8F0413A
:10578000FFF725B9986ABDE8F041FFF725B9304623
:10579000FDF7EBF8C0EB0010800084FB00108110D7
:1057A000A1EBE070BDE8F0811868BDE8F041FDF7BD
:1057B00091BF1868BDE8F041FDF787BF1868BDE8E4
:1057C000F041FDF77FBF186BBDE8F04100F042BB30
:1057D000D86ABDE8F041FDF723BF3046FDF7A7F8D2
:1057E000C0EB0010800084FB00108110A1EBE07082
:1057F000BDE8F0819AE021E03046FDF7ABF800B259
:10580000BDE8F0813046BDE8F041FDF798B830467C
:10581000FDF795F80128BAD13046FDF79EF8C0EBA8
:105820000010800003E04BE053E020E00BE084FB3D
:1058300000108110A1EBE070BDE8F0811868BDE8B0
:10584000F041FDF74ABF1868BDE8F041FDF740BFE1
:105850005868BDE8F041FDF73DBF5868BDE8F0412C
:10586000FDF733BF5868BDE8F041FDF72BBF304668
:10587000FDF770F80014BDE8F0819868BDE8F041CC
:10588000FDF728BF9868BDE8F041FDF71EBF986896
:10589000BDE8F041FDF716BFD86BBDE8F041FDF75C
:1058A0007FBE00216046FFF7F1FEBDE8F08176E0A3
:1058B00071E06CE0FFE701216046FFF7E7FEF4E7E7
:1058C000DCF81020002AF0D0BDE8F041002160464D
:1058D0001047DCF81020002AE7D0BDE8F041012194
:1058E0006046104708E088E083E07EE079E074E0FD
:1058F0006FE06AE065E05FE09CF82C20DCF828109F
:1059000051F822200021B7EB127F14BFB5EB127FB4
:105910009969C2F30362022A14BF012AD9690029D6
:10592000C3D0BDE8F0410846FEF72CBF9CF82C2000
:10593000DCF8281051F822200021B7EB127F14BFA9
:10594000B5EB127F9969C2F30362022A14BF012AE0
:10595000D9690029A9D0BDE8F0410846FEF718BF73
:10596000586AFEF7DEFFC0EB001028498000A1FB5B
:105970000010C00899E7586AFEF7DEFFC0EB001080
:10598000800084FB00108110A1EBE0708DE73046B1
:10599000FCF7DDFF0EE03046FCF7D9FF0FE0596958
:1059A000002982D0BDE8F0410846FEF75FBE3046D0
:1059B000FCF7C7FF00B278E73046FCF7C2FF0014DF
:1059C00073E73046FCF7C0FFF4E73046FCF7BCFF56
:1059D000F5E73046FCF7BEFFECE73046FCF7BAFFD0
:1059E000EDE73046FCF7CFFFE4E73046FCF7CBFFAE
:1059F000E5E73046FCF7C3FFDCE73046FCF7BFFFC6
:105A0000DDE70000676666667A84A634CDCCCCCC30
:105A10002DE9F0478946416A90F82C000124DDF811
:105A2000208051F820001E4617464569002D08BF0A
:105A300000240FD049462846FEF71BFE3880494611
:105A40002846FEF71CFE308049462846FEF71EFE1B
:105A5000A8F800002046BDE8F08790F82C007047B9
:105A600010B5FDF733FC18B1BDE81040FDF772BC6E
:105A7000BDE81040FDF768BC10B5002060F31F447E
:105A800060F30F04FDF722FC002818BF10BD0A4880
:105A9000006A406A0949B1F9001001EB4102C2EB0A
:105AA000C11100EB4110064908602046FDF744FC97
:105AB000BDE81040FDF748BC940200202E060020EF
:105AC00034060020DDF800C001770021C0E908237A
:105AD00080F82C10C0F828C07047000009484188A1
